{
  "address": "0x9fE46736679d2D9a65F0992F2272dE9f3c7fa6e0",
  "abi": [
    {
      "inputs": [
        {
          "internalType": "contract GameItem",
          "name": "_gameItem",
          "type": "address"
        },
        {
          "internalType": "contract Token",
          "name": "_token",
          "type": "address"
        }
      ],
      "stateMutability": "nonpayable",
      "type": "constructor"
    },
    {
      "anonymous": false,
      "inputs": [
        {
          "indexed": true,
          "internalType": "address",
          "name": "previousOwner",
          "type": "address"
        },
        {
          "indexed": true,
          "internalType": "address",
          "name": "newOwner",
          "type": "address"
        }
      ],
      "name": "OwnershipTransferred",
      "type": "event"
    },
    {
      "anonymous": false,
      "inputs": [
        {
          "indexed": false,
          "internalType": "address",
          "name": "owner",
          "type": "address"
        },
        {
          "indexed": false,
          "internalType": "address",
          "name": "user",
          "type": "address"
        },
        {
          "indexed": false,
          "internalType": "uint256",
          "name": "tokenId",
          "type": "uint256"
        },
        {
          "indexed": false,
          "internalType": "uint256",
          "name": "proposalId",
          "type": "uint256"
        }
      ],
      "name": "ProposalMade",
      "type": "event"
    },
    {
      "inputs": [
        {
          "internalType": "uint256",
          "name": "proposalId",
          "type": "uint256"
        },
        {
          "internalType": "uint256",
          "name": "amount",
          "type": "uint256"
        },
        {
          "internalType": "uint64",
          "name": "expires",
          "type": "uint64"
        }
      ],
      "name": "acceptProposal",
      "outputs": [],
      "stateMutability": "nonpayable",
      "type": "function"
    },
    {
      "inputs": [
        {
          "internalType": "uint256",
          "name": "",
          "type": "uint256"
        }
      ],
      "name": "allProposals",
      "outputs": [
        {
          "internalType": "uint256",
          "name": "tokenId",
          "type": "uint256"
        },
        {
          "internalType": "uint256",
          "name": "proposalId",
          "type": "uint256"
        },
        {
          "internalType": "address",
          "name": "owner",
          "type": "address"
        },
        {
          "internalType": "address",
          "name": "user",
          "type": "address"
        },
        {
          "internalType": "bool",
          "name": "active",
          "type": "bool"
        }
      ],
      "stateMutability": "view",
      "type": "function"
    },
    {
      "inputs": [],
      "name": "gameItem",
      "outputs": [
        {
          "internalType": "contract GameItem",
          "name": "",
          "type": "address"
        }
      ],
      "stateMutability": "view",
      "type": "function"
    },
    {
      "inputs": [
        {
          "internalType": "uint256",
          "name": "proposalId",
          "type": "uint256"
        }
      ],
      "name": "getProposal",
      "outputs": [
        {
          "components": [
            {
              "internalType": "uint256",
              "name": "tokenId",
              "type": "uint256"
            },
            {
              "internalType": "uint256",
              "name": "proposalId",
              "type": "uint256"
            },
            {
              "internalType": "address",
              "name": "owner",
              "type": "address"
            },
            {
              "internalType": "address",
              "name": "user",
              "type": "address"
            },
            {
              "internalType": "bool",
              "name": "active",
              "type": "bool"
            }
          ],
          "internalType": "struct Escrow.UserProposal",
          "name": "thisProposal",
          "type": "tuple"
        }
      ],
      "stateMutability": "view",
      "type": "function"
    },
    {
      "inputs": [
        {
          "internalType": "uint256",
          "name": "tokenId",
          "type": "uint256"
        },
        {
          "internalType": "address",
          "name": "winner",
          "type": "address"
        }
      ],
      "name": "loseItem",
      "outputs": [],
      "stateMutability": "nonpayable",
      "type": "function"
    },
    {
      "inputs": [
        {
          "internalType": "uint256",
          "name": "tokenId",
          "type": "uint256"
        }
      ],
      "name": "makeProposal",
      "outputs": [],
      "stateMutability": "nonpayable",
      "type": "function"
    },
    {
      "inputs": [],
      "name": "owner",
      "outputs": [
        {
          "internalType": "address",
          "name": "",
          "type": "address"
        }
      ],
      "stateMutability": "view",
      "type": "function"
    },
    {
      "inputs": [
        {
          "internalType": "uint256",
          "name": "",
          "type": "uint256"
        }
      ],
      "name": "proposal",
      "outputs": [
        {
          "internalType": "uint256",
          "name": "tokenId",
          "type": "uint256"
        },
        {
          "internalType": "uint256",
          "name": "proposalId",
          "type": "uint256"
        },
        {
          "internalType": "address",
          "name": "owner",
          "type": "address"
        },
        {
          "internalType": "address",
          "name": "user",
          "type": "address"
        },
        {
          "internalType": "bool",
          "name": "active",
          "type": "bool"
        }
      ],
      "stateMutability": "view",
      "type": "function"
    },
    {
      "inputs": [],
      "name": "renounceOwnership",
      "outputs": [],
      "stateMutability": "nonpayable",
      "type": "function"
    },
    {
      "inputs": [
        {
          "internalType": "uint256",
          "name": "tokenId",
          "type": "uint256"
        }
      ],
      "name": "storeItemInEscrow",
      "outputs": [],
      "stateMutability": "nonpayable",
      "type": "function"
    },
    {
      "inputs": [],
      "name": "token",
      "outputs": [
        {
          "internalType": "contract Token",
          "name": "",
          "type": "address"
        }
      ],
      "stateMutability": "view",
      "type": "function"
    },
    {
      "inputs": [
        {
          "internalType": "address",
          "name": "newOwner",
          "type": "address"
        }
      ],
      "name": "transferOwnership",
      "outputs": [],
      "stateMutability": "nonpayable",
      "type": "function"
    },
    {
      "inputs": [
        {
          "internalType": "uint256",
          "name": "proposalId",
          "type": "uint256"
        }
      ],
      "name": "withdrawProposal",
      "outputs": [],
      "stateMutability": "nonpayable",
      "type": "function"
    }
  ],
  "transactionHash": "0xc0a6ca0adb3d7645f80a52ec9d4116da2539e70bcda87e7ada6765f86c713823",
  "args": [
    "0xe7f1725E7734CE288F8367e1Bb143E90bb3F0512",
    "0x5FbDB2315678afecb367f032d93F642f64180aa3"
  ],
  "numDeployments": 1,
  "solcInputHash": "9a442197e4bdd6259af69a31a41959ae",
  "bytecode": "0x60806040523480156200001157600080fd5b50604051620027e2380380620027e2833981810160405281019062000037919062000288565b620000576200004b6200018e60201b60201c565b6200019660201b60201c565b600073ffffffffffffffffffffffffffffffffffffffff168273ffffffffffffffffffffffffffffffffffffffff1614158015620000c25750600073ffffffffffffffffffffffffffffffffffffffff168173ffffffffffffffffffffffffffffffffffffffff1614155b62000104576040517f08c379a0000000000000000000000000000000000000000000000000000000008152600401620000fb90620002f0565b60405180910390fd5b81600160006101000a81548173ffffffffffffffffffffffffffffffffffffffff021916908373ffffffffffffffffffffffffffffffffffffffff16021790555080600260006101000a81548173ffffffffffffffffffffffffffffffffffffffff021916908373ffffffffffffffffffffffffffffffffffffffff160217905550505062000402565b600033905090565b60008060009054906101000a900473ffffffffffffffffffffffffffffffffffffffff169050816000806101000a81548173ffffffffffffffffffffffffffffffffffffffff021916908373ffffffffffffffffffffffffffffffffffffffff1602179055508173ffffffffffffffffffffffffffffffffffffffff168173ffffffffffffffffffffffffffffffffffffffff167f8be0079c531659141344cd1fd0a4f28419497f9722a3daafe3b4186f6b6457e060405160405180910390a35050565b6000815190506200026b81620003ce565b92915050565b6000815190506200028281620003e8565b92915050565b600080604083850312156200029c57600080fd5b6000620002ac858286016200025a565b9250506020620002bf8582860162000271565b9150509250929050565b6000620002d860238362000312565b9150620002e5826200037f565b604082019050919050565b600060208201905081810360008301526200030b81620002c9565b9050919050565b600082825260208201905092915050565b600062000330826200035f565b9050919050565b6000620003448262000323565b9050919050565b6000620003588262000323565b9050919050565b600073ffffffffffffffffffffffffffffffffffffffff82169050919050565b7f43616e6e6f742073657420636f6e747261637420746f207a65726f206164647260008201527f6573730000000000000000000000000000000000000000000000000000000000602082015250565b620003d98162000337565b8114620003e557600080fd5b50565b620003f3816200034b565b8114620003ff57600080fd5b50565b6123d080620004126000396000f3fe608060405234801561001057600080fd5b50600436106100cf5760003560e01c8063938351b81161008c578063d29e298f11610066578063d29e298f14610206578063e1f02ffa14610222578063f2fde38b1461023e578063fc0c546a1461025a576100cf565b8063938351b814610186578063c3a6646c146101ba578063c7f758a8146101d6576100cf565b806330326c17146100d45780633203a22a146101085780635e8e9cd6146101245780636725203b14610142578063715018a61461015e5780638da5cb5b14610168575b600080fd5b6100ee60048036038101906100e99190611a0e565b610278565b6040516100ff959493929190611f6f565b60405180910390f35b610122600480360381019061011d9190611a0e565b6102fb565b005b61012c61061b565b6040516101399190611dac565b60405180910390f35b61015c60048036038101906101579190611a0e565b610641565b005b610166610a93565b005b610170610aa7565b60405161017d9190611d15565b60405180910390f35b6101a0600480360381019061019b9190611a0e565b610ad0565b6040516101b1959493929190611f6f565b60405180910390f35b6101d460048036038101906101cf9190611a9c565b610b63565b005b6101f060048036038101906101eb9190611a0e565b61126b565b6040516101fd9190611f02565b60405180910390f35b610220600480360381019061021b9190611a60565b6113a8565b005b61023c60048036038101906102379190611a0e565b611555565b005b61025860048036038101906102539190611993565b6116c4565b005b610262611748565b60405161026f9190611dc7565b60405180910390f35b60046020528060005260406000206000915090508060000154908060010154908060020160009054906101000a900473ffffffffffffffffffffffffffffffffffffffff16908060030160009054906101000a900473ffffffffffffffffffffffffffffffffffffffff16908060030160149054906101000a900460ff16905085565b60006003805490509050600060046000838152602001908152602001600020905060018160030160146101000a81548160ff0219169083151502179055506000600160009054906101000a900473ffffffffffffffffffffffffffffffffffffffff1673ffffffffffffffffffffffffffffffffffffffff16636352211e856040518263ffffffff1660e01b81526004016103969190611f1d565b60206040518083038186803b1580156103ae57600080fd5b505afa1580156103c2573d6000803e3d6000fd5b505050506040513d601f19601f820116820180604052508101906103e691906119bc565b9050808260020160006101000a81548173ffffffffffffffffffffffffffffffffffffffff021916908373ffffffffffffffffffffffffffffffffffffffff160217905550828260010181905550338260030160006101000a81548173ffffffffffffffffffffffffffffffffffffffff021916908373ffffffffffffffffffffffffffffffffffffffff160217905550600382908060018154018082558091505060019003906000526020600020906004020160009091909190915060008201548160000155600182015481600101556002820160009054906101000a900473ffffffffffffffffffffffffffffffffffffffff168160020160006101000a81548173ffffffffffffffffffffffffffffffffffffffff021916908373ffffffffffffffffffffffffffffffffffffffff1602179055506003820160009054906101000a900473ffffffffffffffffffffffffffffffffffffffff168160030160006101000a81548173ffffffffffffffffffffffffffffffffffffffff021916908373ffffffffffffffffffffffffffffffffffffffff1602179055506003820160149054906101000a900460ff168160030160146101000a81548160ff02191690831515021790555050507f38efc7ec9a7f9481f0a5682091d1457d2dd2d417999f3fea302433da408656b9818360030160009054906101000a900473ffffffffffffffffffffffffffffffffffffffff16868660405161060d9493929190611d67565b60405180910390a150505050565b600160009054906101000a900473ffffffffffffffffffffffffffffffffffffffff1681565b600073ffffffffffffffffffffffffffffffffffffffff16600160009054906101000a900473ffffffffffffffffffffffffffffffffffffffff1673ffffffffffffffffffffffffffffffffffffffff1663c2f1f14a836040518263ffffffff1660e01b81526004016106b49190611f1d565b60206040518083038186803b1580156106cc57600080fd5b505afa1580156106e0573d6000803e3d6000fd5b505050506040513d601f19601f8201168201806040525081019061070491906119bc565b73ffffffffffffffffffffffffffffffffffffffff161461083c57600160009054906101000a900473ffffffffffffffffffffffffffffffffffffffff1673ffffffffffffffffffffffffffffffffffffffff1663c2f1f14a826040518263ffffffff1660e01b815260040161077a9190611f1d565b60206040518083038186803b15801561079257600080fd5b505afa1580156107a6573d6000803e3d6000fd5b505050506040513d601f19601f820116820180604052508101906107ca91906119bc565b73ffffffffffffffffffffffffffffffffffffffff163373ffffffffffffffffffffffffffffffffffffffff1614610837576040517f08c379a000000000000000000000000000000000000000000000000000000000815260040161082e90611e22565b60405180910390fd5b610955565b600160009054906101000a900473ffffffffffffffffffffffffffffffffffffffff1673ffffffffffffffffffffffffffffffffffffffff16636352211e826040518263ffffffff1660e01b81526004016108979190611f1d565b60206040518083038186803b1580156108af57600080fd5b505afa1580156108c3573d6000803e3d6000fd5b505050506040513d601f19601f820116820180604052508101906108e791906119bc565b73ffffffffffffffffffffffffffffffffffffffff163373ffffffffffffffffffffffffffffffffffffffff1614610954576040517f08c379a000000000000000000000000000000000000000000000000000000000815260040161094b90611e22565b60405180910390fd5b5b600160009054906101000a900473ffffffffffffffffffffffffffffffffffffffff1673ffffffffffffffffffffffffffffffffffffffff166323b872dd600160009054906101000a900473ffffffffffffffffffffffffffffffffffffffff1673ffffffffffffffffffffffffffffffffffffffff16636352211e846040518263ffffffff1660e01b81526004016109ee9190611f1d565b60206040518083038186803b158015610a0657600080fd5b505afa158015610a1a573d6000803e3d6000fd5b505050506040513d601f19601f82011682018060405250810190610a3e91906119bc565b30846040518463ffffffff1660e01b8152600401610a5e93929190611d30565b600060405180830381600087803b158015610a7857600080fd5b505af1158015610a8c573d6000803e3d6000fd5b5050505050565b610a9b61176e565b610aa560006117ec565b565b60008060009054906101000a900473ffffffffffffffffffffffffffffffffffffffff16905090565b60038181548110610ae057600080fd5b90600052602060002090600402016000915090508060000154908060010154908060020160009054906101000a900473ffffffffffffffffffffffffffffffffffffffff16908060030160009054906101000a900473ffffffffffffffffffffffffffffffffffffffff16908060030160149054906101000a900460ff16905085565b60038381548110610b9d577f4e487b7100000000000000000000000000000000000000000000000000000000600052603260045260246000fd5b906000526020600020906004020160020160009054906101000a900473ffffffffffffffffffffffffffffffffffffffff1673ffffffffffffffffffffffffffffffffffffffff163373ffffffffffffffffffffffffffffffffffffffff1614610c3c576040517f08c379a0000000000000000000000000000000000000000000000000000000008152600401610c3390611ec2565b60405180910390fd5b6001151560038481548110610c7a577f4e487b7100000000000000000000000000000000000000000000000000000000600052603260045260246000fd5b906000526020600020906004020160030160149054906101000a900460ff16151514610cdb576040517f08c379a0000000000000000000000000000000000000000000000000000000008152600401610cd290611e82565b60405180910390fd5b600073ffffffffffffffffffffffffffffffffffffffff16600160009054906101000a900473ffffffffffffffffffffffffffffffffffffffff1673ffffffffffffffffffffffffffffffffffffffff1663c2f1f14a60038681548110610d6b577f4e487b7100000000000000000000000000000000000000000000000000000000600052603260045260246000fd5b9060005260206000209060040201600001546040518263ffffffff1660e01b8152600401610d999190611f1d565b60206040518083038186803b158015610db157600080fd5b505afa158015610dc5573d6000803e3d6000fd5b505050506040513d601f19601f82011682018060405250810190610de991906119bc565b73ffffffffffffffffffffffffffffffffffffffff1614610e3f576040517f08c379a0000000000000000000000000000000000000000000000000000000008152600401610e3690611ee2565b60405180910390fd5b81600260009054906101000a900473ffffffffffffffffffffffffffffffffffffffff1673ffffffffffffffffffffffffffffffffffffffff166370a0823160038681548110610eb8577f4e487b7100000000000000000000000000000000000000000000000000000000600052603260045260246000fd5b906000526020600020906004020160030160009054906101000a900473ffffffffffffffffffffffffffffffffffffffff166040518263ffffffff1660e01b8152600401610f069190611d15565b60206040518083038186803b158015610f1e57600080fd5b505afa158015610f32573d6000803e3d6000fd5b505050506040513d601f19601f82011682018060405250810190610f569190611a37565b1015610f97576040517f08c379a0000000000000000000000000000000000000000000000000000000008152600401610f8e90611e42565b60405180910390fd5b600260009054906101000a900473ffffffffffffffffffffffffffffffffffffffff1673ffffffffffffffffffffffffffffffffffffffff166323b872dd6003858154811061100f577f4e487b7100000000000000000000000000000000000000000000000000000000600052603260045260246000fd5b906000526020600020906004020160030160009054906101000a900473ffffffffffffffffffffffffffffffffffffffff166003868154811061107b577f4e487b7100000000000000000000000000000000000000000000000000000000600052603260045260246000fd5b906000526020600020906004020160020160009054906101000a900473ffffffffffffffffffffffffffffffffffffffff16856040518463ffffffff1660e01b81526004016110cc93929190611d30565b602060405180830381600087803b1580156110e657600080fd5b505af11580156110fa573d6000803e3d6000fd5b505050506040513d601f19601f8201168201806040525081019061111e91906119e5565b50600160009054906101000a900473ffffffffffffffffffffffffffffffffffffffff1673ffffffffffffffffffffffffffffffffffffffff1663e030565e60038581548110611197577f4e487b7100000000000000000000000000000000000000000000000000000000600052603260045260246000fd5b906000526020600020906004020160000154600386815481106111e3577f4e487b7100000000000000000000000000000000000000000000000000000000600052603260045260246000fd5b906000526020600020906004020160030160009054906101000a900473ffffffffffffffffffffffffffffffffffffffff16846040518463ffffffff1660e01b815260040161123493929190611f38565b600060405180830381600087803b15801561124e57600080fd5b505af1158015611262573d6000803e3d6000fd5b50505050505050565b6112736118b8565b600382815481106112ad577f4e487b7100000000000000000000000000000000000000000000000000000000600052603260045260246000fd5b90600052602060002090600402016040518060a001604052908160008201548152602001600182015481526020016002820160009054906101000a900473ffffffffffffffffffffffffffffffffffffffff1673ffffffffffffffffffffffffffffffffffffffff1673ffffffffffffffffffffffffffffffffffffffff1681526020016003820160009054906101000a900473ffffffffffffffffffffffffffffffffffffffff1673ffffffffffffffffffffffffffffffffffffffff1673ffffffffffffffffffffffffffffffffffffffff1681526020016003820160149054906101000a900460ff1615151515815250509050919050565b3073ffffffffffffffffffffffffffffffffffffffff16600160009054906101000a900473ffffffffffffffffffffffffffffffffffffffff1673ffffffffffffffffffffffffffffffffffffffff16636352211e846040518263ffffffff1660e01b815260040161141a9190611f1d565b60206040518083038186803b15801561143257600080fd5b505afa158015611446573d6000803e3d6000fd5b505050506040513d601f19601f8201168201806040525081019061146a91906119bc565b73ffffffffffffffffffffffffffffffffffffffff16146114c0576040517f08c379a00000000000000000000000000000000000000000000000000000000081526004016114b790611e62565b60405180910390fd5b600160009054906101000a900473ffffffffffffffffffffffffffffffffffffffff1673ffffffffffffffffffffffffffffffffffffffff166323b872dd3083856040518463ffffffff1660e01b815260040161151f93929190611d30565b600060405180830381600087803b15801561153957600080fd5b505af115801561154d573d6000803e3d6000fd5b505050505050565b6003818154811061158f577f4e487b7100000000000000000000000000000000000000000000000000000000600052603260045260246000fd5b906000526020600020906004020160030160009054906101000a900473ffffffffffffffffffffffffffffffffffffffff1673ffffffffffffffffffffffffffffffffffffffff163373ffffffffffffffffffffffffffffffffffffffff161461162e576040517f08c379a000000000000000000000000000000000000000000000000000000000815260040161162590611de2565b60405180910390fd5b60006003828154811061166a577f4e487b7100000000000000000000000000000000000000000000000000000000600052603260045260246000fd5b906000526020600020906004020160030160146101000a81548160ff02191690831515021790555060006004600083815260200190815260200160002060030160146101000a81548160ff02191690831515021790555050565b6116cc61176e565b600073ffffffffffffffffffffffffffffffffffffffff168173ffffffffffffffffffffffffffffffffffffffff16141561173c576040517f08c379a000000000000000000000000000000000000000000000000000000000815260040161173390611e02565b60405180910390fd5b611745816117ec565b50565b600260009054906101000a900473ffffffffffffffffffffffffffffffffffffffff1681565b6117766118b0565b73ffffffffffffffffffffffffffffffffffffffff16611794610aa7565b73ffffffffffffffffffffffffffffffffffffffff16146117ea576040517f08c379a00000000000000000000000000000000000000000000000000000000081526004016117e190611ea2565b60405180910390fd5b565b60008060009054906101000a900473ffffffffffffffffffffffffffffffffffffffff169050816000806101000a81548173ffffffffffffffffffffffffffffffffffffffff021916908373ffffffffffffffffffffffffffffffffffffffff1602179055508173ffffffffffffffffffffffffffffffffffffffff168173ffffffffffffffffffffffffffffffffffffffff167f8be0079c531659141344cd1fd0a4f28419497f9722a3daafe3b4186f6b6457e060405160405180910390a35050565b600033905090565b6040518060a001604052806000815260200160008152602001600073ffffffffffffffffffffffffffffffffffffffff168152602001600073ffffffffffffffffffffffffffffffffffffffff1681526020016000151581525090565b6000813590506119248161233e565b92915050565b6000815190506119398161233e565b92915050565b60008151905061194e81612355565b92915050565b6000813590506119638161236c565b92915050565b6000815190506119788161236c565b92915050565b60008135905061198d81612383565b92915050565b6000602082840312156119a557600080fd5b60006119b384828501611915565b91505092915050565b6000602082840312156119ce57600080fd5b60006119dc8482850161192a565b91505092915050565b6000602082840312156119f757600080fd5b6000611a058482850161193f565b91505092915050565b600060208284031215611a2057600080fd5b6000611a2e84828501611954565b91505092915050565b600060208284031215611a4957600080fd5b6000611a5784828501611969565b91505092915050565b60008060408385031215611a7357600080fd5b6000611a8185828601611954565b9250506020611a9285828601611915565b9150509250929050565b600080600060608486031215611ab157600080fd5b6000611abf86828701611954565b9350506020611ad086828701611954565b9250506040611ae18682870161197e565b9150509250925092565b611af481611fd3565b82525050565b611b0381611fd3565b82525050565b611b1281611fe5565b82525050565b611b2181611fe5565b82525050565b611b308161202f565b82525050565b611b3f81612053565b82525050565b6000611b52602683611fc2565b9150611b5d82612077565b604082019050919050565b6000611b75602683611fc2565b9150611b80826120c6565b604082019050919050565b6000611b98603183611fc2565b9150611ba382612115565b604082019050919050565b6000611bbb604a83611fc2565b9150611bc682612164565b606082019050919050565b6000611bde602683611fc2565b9150611be9826121d9565b604082019050919050565b6000611c01602383611fc2565b9150611c0c82612228565b604082019050919050565b6000611c24602083611fc2565b9150611c2f82612277565b602082019050919050565b6000611c47602183611fc2565b9150611c52826122a0565b604082019050919050565b6000611c6a602983611fc2565b9150611c75826122ef565b604082019050919050565b60a082016000820151611c966000850182611ce8565b506020820151611ca96020850182611ce8565b506040820151611cbc6040850182611aeb565b506060820151611ccf6060850182611aeb565b506080820151611ce26080850182611b09565b50505050565b611cf181612011565b82525050565b611d0081612011565b82525050565b611d0f8161201b565b82525050565b6000602082019050611d2a6000830184611afa565b92915050565b6000606082019050611d456000830186611afa565b611d526020830185611afa565b611d5f6040830184611cf7565b949350505050565b6000608082019050611d7c6000830187611afa565b611d896020830186611afa565b611d966040830185611cf7565b611da36060830184611cf7565b95945050505050565b6000602082019050611dc16000830184611b27565b92915050565b6000602082019050611ddc6000830184611b36565b92915050565b60006020820190508181036000830152611dfb81611b45565b9050919050565b60006020820190508181036000830152611e1b81611b68565b9050919050565b60006020820190508181036000830152611e3b81611b8b565b9050919050565b60006020820190508181036000830152611e5b81611bae565b9050919050565b60006020820190508181036000830152611e7b81611bd1565b9050919050565b60006020820190508181036000830152611e9b81611bf4565b9050919050565b60006020820190508181036000830152611ebb81611c17565b9050919050565b60006020820190508181036000830152611edb81611c3a565b9050919050565b60006020820190508181036000830152611efb81611c5d565b9050919050565b600060a082019050611f176000830184611c80565b92915050565b6000602082019050611f326000830184611cf7565b92915050565b6000606082019050611f4d6000830186611cf7565b611f5a6020830185611afa565b611f676040830184611d06565b949350505050565b600060a082019050611f846000830188611cf7565b611f916020830187611cf7565b611f9e6040830186611afa565b611fab6060830185611afa565b611fb86080830184611b18565b9695505050505050565b600082825260208201905092915050565b6000611fde82611ff1565b9050919050565b60008115159050919050565b600073ffffffffffffffffffffffffffffffffffffffff82169050919050565b6000819050919050565b600067ffffffffffffffff82169050919050565b600061203a82612041565b9050919050565b600061204c82611ff1565b9050919050565b600061205e82612065565b9050919050565b600061207082611ff1565b9050919050565b7f457363726f773a20596f7520646964206e6f74206d616b65207468697320707260008201527f6f706f73616c0000000000000000000000000000000000000000000000000000602082015250565b7f4f776e61626c653a206e6577206f776e657220697320746865207a65726f206160008201527f6464726573730000000000000000000000000000000000000000000000000000602082015250565b7f596f752063616e6e6f7420737461727420612067616d696e672073657373696f60008201527f6e2077697468207468697320746f6b656e000000000000000000000000000000602082015250565b7f457363726f773a20546865207573657220646f6573206e6f742068617665206560008201527f6e6f75676820746f6b656e7320746f20636f6d706c657465207468697320747260208201527f616e73616374696f6e2e00000000000000000000000000000000000000000000604082015250565b7f43616e6e6f74206c6f7365206974656d2074686174206973206e6f7420696e2060008201527f657363726f770000000000000000000000000000000000000000000000000000602082015250565b7f457363726f773a20546869732070726f706f73616c206973206e6f742061637460008201527f6976650000000000000000000000000000000000000000000000000000000000602082015250565b7f4f776e61626c653a2063616c6c6572206973206e6f7420746865206f776e6572600082015250565b7f457363726f773a20596f7520646f206e6f74206f776e207468697320746f6b6560008201527f6e00000000000000000000000000000000000000000000000000000000000000602082015250565b7f457363726f773a2054686973206974656d2068617320616c726561647920626560008201527f656e2072656e7465640000000000000000000000000000000000000000000000602082015250565b61234781611fd3565b811461235257600080fd5b50565b61235e81611fe5565b811461236957600080fd5b50565b61237581612011565b811461238057600080fd5b50565b61238c8161201b565b811461239757600080fd5b5056fea26469706673582212206f4950ffb1bf4f432cf9ee80635e71c609d623f60466b4af124c9d9a45a2c1ee64736f6c63430008030033",
  "devdoc": {
    "kind": "dev",
    "methods": {
      "owner()": {
        "details": "Returns the address of the current owner."
      },
      "renounceOwnership()": {
        "details": "Leaves the contract without owner. It will not be possible to call `onlyOwner` functions anymore. Can only be called by the current owner. NOTE: Renouncing ownership will leave the contract without an owner, thereby removing any functionality that is only available to the owner."
      },
      "transferOwnership(address)": {
        "details": "Transfers ownership of the contract to a new account (`newOwner`). Can only be called by the current owner."
      }
    },
    "version": 1
  },
  "userdoc": {
    "kind": "user",
    "methods": {},
    "version": 1
  },
  "storageLayout": {
    "storage": [
      {
        "astId": 7,
        "contract": "contracts/Escrow.sol:Escrow",
        "label": "_owner",
        "offset": 0,
        "slot": "0",
        "type": "t_address"
      },
      {
        "astId": 2493,
        "contract": "contracts/Escrow.sol:Escrow",
        "label": "gameItem",
        "offset": 0,
        "slot": "1",
        "type": "t_contract(GameItem)2939"
      },
      {
        "astId": 2496,
        "contract": "contracts/Escrow.sol:Escrow",
        "label": "token",
        "offset": 0,
        "slot": "2",
        "type": "t_contract(Token)3004"
      },
      {
        "astId": 2511,
        "contract": "contracts/Escrow.sol:Escrow",
        "label": "allProposals",
        "offset": 0,
        "slot": "3",
        "type": "t_array(t_struct(UserProposal)2507_storage)dyn_storage"
      },
      {
        "astId": 2516,
        "contract": "contracts/Escrow.sol:Escrow",
        "label": "proposal",
        "offset": 0,
        "slot": "4",
        "type": "t_mapping(t_uint256,t_struct(UserProposal)2507_storage)"
      }
    ],
    "types": {
      "t_address": {
        "encoding": "inplace",
        "label": "address",
        "numberOfBytes": "20"
      },
      "t_array(t_struct(UserProposal)2507_storage)dyn_storage": {
        "base": "t_struct(UserProposal)2507_storage",
        "encoding": "dynamic_array",
        "label": "struct Escrow.UserProposal[]",
        "numberOfBytes": "32"
      },
      "t_bool": {
        "encoding": "inplace",
        "label": "bool",
        "numberOfBytes": "1"
      },
      "t_contract(GameItem)2939": {
        "encoding": "inplace",
        "label": "contract GameItem",
        "numberOfBytes": "20"
      },
      "t_contract(Token)3004": {
        "encoding": "inplace",
        "label": "contract Token",
        "numberOfBytes": "20"
      },
      "t_mapping(t_uint256,t_struct(UserProposal)2507_storage)": {
        "encoding": "mapping",
        "key": "t_uint256",
        "label": "mapping(uint256 => struct Escrow.UserProposal)",
        "numberOfBytes": "32",
        "value": "t_struct(UserProposal)2507_storage"
      },
      "t_struct(UserProposal)2507_storage": {
        "encoding": "inplace",
        "label": "struct Escrow.UserProposal",
        "members": [
          {
            "astId": 2498,
            "contract": "contracts/Escrow.sol:Escrow",
            "label": "tokenId",
            "offset": 0,
            "slot": "0",
            "type": "t_uint256"
          },
          {
            "astId": 2500,
            "contract": "contracts/Escrow.sol:Escrow",
            "label": "proposalId",
            "offset": 0,
            "slot": "1",
            "type": "t_uint256"
          },
          {
            "astId": 2502,
            "contract": "contracts/Escrow.sol:Escrow",
            "label": "owner",
            "offset": 0,
            "slot": "2",
            "type": "t_address"
          },
          {
            "astId": 2504,
            "contract": "contracts/Escrow.sol:Escrow",
            "label": "user",
            "offset": 0,
            "slot": "3",
            "type": "t_address"
          },
          {
            "astId": 2506,
            "contract": "contracts/Escrow.sol:Escrow",
            "label": "active",
            "offset": 20,
            "slot": "3",
            "type": "t_bool"
          }
        ],
        "numberOfBytes": "128"
      },
      "t_uint256": {
        "encoding": "inplace",
        "label": "uint256",
        "numberOfBytes": "32"
      }
    }
  }
}